{
  "contractName": "ERC20SNKT",
  "abi": [
    {
      "inputs": [
        {
          "internalType": "string",
          "name": "name_",
          "type": "string"
        },
        {
          "internalType": "string",
          "name": "symbol_",
          "type": "string"
        },
        {
          "internalType": "uint256",
          "name": "initialSupply_",
          "type": "uint256"
        }
      ],
      "stateMutability": "nonpayable",
      "type": "constructor"
    },
    {
      "anonymous": false,
      "inputs": [
        {
          "indexed": true,
          "internalType": "address",
          "name": "owner",
          "type": "address"
        },
        {
          "indexed": true,
          "internalType": "address",
          "name": "spender",
          "type": "address"
        },
        {
          "indexed": false,
          "internalType": "uint256",
          "name": "value",
          "type": "uint256"
        }
      ],
      "name": "Approval",
      "type": "event"
    },
    {
      "anonymous": false,
      "inputs": [
        {
          "indexed": true,
          "internalType": "address",
          "name": "from",
          "type": "address"
        },
        {
          "indexed": true,
          "internalType": "address",
          "name": "spender",
          "type": "address"
        },
        {
          "indexed": false,
          "internalType": "uint256",
          "name": "value",
          "type": "uint256"
        }
      ],
      "name": "Transfer",
      "type": "event"
    },
    {
      "inputs": [],
      "name": "name",
      "outputs": [
        {
          "internalType": "string",
          "name": "",
          "type": "string"
        }
      ],
      "stateMutability": "view",
      "type": "function",
      "constant": true
    },
    {
      "inputs": [],
      "name": "symbol",
      "outputs": [
        {
          "internalType": "string",
          "name": "",
          "type": "string"
        }
      ],
      "stateMutability": "view",
      "type": "function",
      "constant": true
    },
    {
      "inputs": [],
      "name": "decimals",
      "outputs": [
        {
          "internalType": "uint8",
          "name": "",
          "type": "uint8"
        }
      ],
      "stateMutability": "view",
      "type": "function",
      "constant": true
    },
    {
      "inputs": [],
      "name": "totalSupply",
      "outputs": [
        {
          "internalType": "uint256",
          "name": "",
          "type": "uint256"
        }
      ],
      "stateMutability": "view",
      "type": "function",
      "constant": true
    },
    {
      "inputs": [
        {
          "internalType": "address",
          "name": "account",
          "type": "address"
        }
      ],
      "name": "balanceOf",
      "outputs": [
        {
          "internalType": "uint256",
          "name": "",
          "type": "uint256"
        }
      ],
      "stateMutability": "view",
      "type": "function",
      "constant": true
    },
    {
      "inputs": [
        {
          "internalType": "address",
          "name": "recipient",
          "type": "address"
        },
        {
          "internalType": "uint256",
          "name": "amount",
          "type": "uint256"
        }
      ],
      "name": "transfer",
      "outputs": [
        {
          "internalType": "bool",
          "name": "",
          "type": "bool"
        }
      ],
      "stateMutability": "nonpayable",
      "type": "function"
    },
    {
      "inputs": [
        {
          "internalType": "address",
          "name": "owner",
          "type": "address"
        },
        {
          "internalType": "address",
          "name": "spender",
          "type": "address"
        }
      ],
      "name": "allowance",
      "outputs": [
        {
          "internalType": "uint256",
          "name": "",
          "type": "uint256"
        }
      ],
      "stateMutability": "view",
      "type": "function",
      "constant": true
    },
    {
      "inputs": [
        {
          "internalType": "address",
          "name": "spender",
          "type": "address"
        },
        {
          "internalType": "uint256",
          "name": "amount",
          "type": "uint256"
        }
      ],
      "name": "approve",
      "outputs": [
        {
          "internalType": "bool",
          "name": "",
          "type": "bool"
        }
      ],
      "stateMutability": "nonpayable",
      "type": "function"
    },
    {
      "inputs": [
        {
          "internalType": "address",
          "name": "sender",
          "type": "address"
        },
        {
          "internalType": "address",
          "name": "reciptent",
          "type": "address"
        },
        {
          "internalType": "uint256",
          "name": "amount",
          "type": "uint256"
        }
      ],
      "name": "transferFrom",
      "outputs": [
        {
          "internalType": "bool",
          "name": "",
          "type": "bool"
        }
      ],
      "stateMutability": "nonpayable",
      "type": "function"
    },
    {
      "inputs": [
        {
          "internalType": "address",
          "name": "spender",
          "type": "address"
        },
        {
          "internalType": "uint256",
          "name": "addedValue",
          "type": "uint256"
        }
      ],
      "name": "increaseAllowance",
      "outputs": [
        {
          "internalType": "bool",
          "name": "",
          "type": "bool"
        }
      ],
      "stateMutability": "nonpayable",
      "type": "function"
    },
    {
      "inputs": [
        {
          "internalType": "address",
          "name": "spender",
          "type": "address"
        },
        {
          "internalType": "uint256",
          "name": "subtractedValue",
          "type": "uint256"
        }
      ],
      "name": "decreaseAllowance",
      "outputs": [
        {
          "internalType": "bool",
          "name": "",
          "type": "bool"
        }
      ],
      "stateMutability": "nonpayable",
      "type": "function"
    },
    {
      "inputs": [
        {
          "internalType": "address",
          "name": "account",
          "type": "address"
        },
        {
          "internalType": "uint256",
          "name": "amount",
          "type": "uint256"
        }
      ],
      "name": "mint",
      "outputs": [],
      "stateMutability": "nonpayable",
      "type": "function"
    },
    {
      "inputs": [
        {
          "internalType": "address",
          "name": "account",
          "type": "address"
        },
        {
          "internalType": "uint256",
          "name": "amount",
          "type": "uint256"
        }
      ],
      "name": "burn",
      "outputs": [],
      "stateMutability": "nonpayable",
      "type": "function"
    },
    {
      "inputs": [
        {
          "internalType": "address",
          "name": "from",
          "type": "address"
        },
        {
          "internalType": "address",
          "name": "to",
          "type": "address"
        },
        {
          "internalType": "uint256",
          "name": "value",
          "type": "uint256"
        }
      ],
      "name": "transferInternal",
      "outputs": [],
      "stateMutability": "nonpayable",
      "type": "function"
    },
    {
      "inputs": [
        {
          "internalType": "address",
          "name": "owner",
          "type": "address"
        },
        {
          "internalType": "address",
          "name": "spender",
          "type": "address"
        },
        {
          "internalType": "uint256",
          "name": "value",
          "type": "uint256"
        }
      ],
      "name": "approveInternal",
      "outputs": [],
      "stateMutability": "nonpayable",
      "type": "function"
    }
  ],
  "bytecode": "0x60806040523480156200001157600080fd5b5060405162001f8338038062001f83833981810160405281019062000037919062000357565b82600390805190602001906200004f9291906200021e565b508160049080519060200190620000689291906200021e565b506200008a6200007d6200009360201b60201c565b826200009b60201b60201c565b50505062000663565b600033905090565b600073ffffffffffffffffffffffffffffffffffffffff168273ffffffffffffffffffffffffffffffffffffffff1614156200010e576040517f08c379a0000000000000000000000000000000000000000000000000000000008152600401620001059062000432565b60405180910390fd5b62000122600083836200021460201b60201c565b8060026000828254620001369190620004e9565b92505081905550806000808473ffffffffffffffffffffffffffffffffffffffff1673ffffffffffffffffffffffffffffffffffffffff16815260200190815260200160002060008282546200018d9190620004e9565b925050819055508173ffffffffffffffffffffffffffffffffffffffff16600073ffffffffffffffffffffffffffffffffffffffff167fddf252ad1be2c89b69c2b068fc378daa952ba7f163c4a11628f55a4df523b3ef83604051620001f4919062000454565b60405180910390a362000210600083836200021960201b60201c565b5050565b505050565b505050565b8280546200022c9062000586565b90600052602060002090601f0160209004810192826200025057600085556200029c565b82601f106200026b57805160ff19168380011785556200029c565b828001600101855582156200029c579182015b828111156200029b5782518255916020019190600101906200027e565b5b509050620002ab9190620002af565b5090565b5b80821115620002ca576000816000905550600101620002b0565b5090565b6000620002e5620002df84620004a5565b62000471565b905082815260208101848484011115620002fe57600080fd5b6200030b84828562000550565b509392505050565b600082601f8301126200032557600080fd5b815162000337848260208601620002ce565b91505092915050565b600081519050620003518162000649565b92915050565b6000806000606084860312156200036d57600080fd5b600084015167ffffffffffffffff8111156200038857600080fd5b620003968682870162000313565b935050602084015167ffffffffffffffff811115620003b457600080fd5b620003c28682870162000313565b9250506040620003d58682870162000340565b9150509250925092565b6000620003ee601f83620004d8565b91507f45524332303a206d696e7420746f20746865207a65726f2061646472657373006000830152602082019050919050565b6200042c8162000546565b82525050565b600060208201905081810360008301526200044d81620003df565b9050919050565b60006020820190506200046b600083018462000421565b92915050565b6000604051905081810181811067ffffffffffffffff821117156200049b576200049a6200061a565b5b8060405250919050565b600067ffffffffffffffff821115620004c357620004c26200061a565b5b601f19601f8301169050602081019050919050565b600082825260208201905092915050565b6000620004f68262000546565b9150620005038362000546565b9250827fffffffffffffffffffffffffffffffffffffffffffffffffffffffffffffffff038211156200053b576200053a620005bc565b5b828201905092915050565b6000819050919050565b60005b838110156200057057808201518184015260208101905062000553565b8381111562000580576000848401525b50505050565b600060028204905060018216806200059f57607f821691505b60208210811415620005b657620005b5620005eb565b5b50919050565b7f4e487b7100000000000000000000000000000000000000000000000000000000600052601160045260246000fd5b7f4e487b7100000000000000000000000000000000000000000000000000000000600052602260045260246000fd5b7f4e487b7100000000000000000000000000000000000000000000000000000000600052604160045260246000fd5b620006548162000546565b81146200066057600080fd5b50565b61191080620006736000396000f3fe608060405234801561001057600080fd5b50600436106100f55760003560e01c806340c10f19116100975780639dc29fac116100665780639dc29fac14610286578063a457c2d7146102a2578063a9059cbb146102d2578063dd62ed3e14610302576100f5565b806340c10f191461020057806356189cb41461021c57806370a082311461023857806395d89b4114610268576100f5565b8063222f5be0116100d3578063222f5be01461016657806323b872dd14610182578063313ce567146101b257806339509351146101d0576100f5565b806306fdde03146100fa578063095ea7b31461011857806318160ddd14610148575b600080fd5b610102610332565b60405161010f9190611545565b60405180910390f35b610132600480360381019061012d91906110b2565b6103c4565b60405161013f919061152a565b60405180910390f35b6101506103e2565b60405161015d91906116a7565b60405180910390f35b610180600480360381019061017b9190611063565b6103ec565b005b61019c60048036038101906101979190611063565b6103fc565b6040516101a9919061152a565b60405180910390f35b6101ba6104f4565b6040516101c791906116c2565b60405180910390f35b6101ea60048036038101906101e591906110b2565b6104fd565b6040516101f7919061152a565b60405180910390f35b61021a600480360381019061021591906110b2565b6105a9565b005b61023660048036038101906102319190611063565b6105b7565b005b610252600480360381019061024d9190610ffe565b6105c7565b60405161025f91906116a7565b60405180910390f35b61027061060f565b60405161027d9190611545565b60405180910390f35b6102a0600480360381019061029b91906110b2565b6106a1565b005b6102bc60048036038101906102b791906110b2565b6106af565b6040516102c9919061152a565b60405180910390f35b6102ec60048036038101906102e791906110b2565b61079a565b6040516102f9919061152a565b60405180910390f35b61031c60048036038101906103179190611027565b6107b8565b60405161032991906116a7565b60405180910390f35b6060600380546103419061180b565b80601f016020809104026020016040519081016040528092919081815260200182805461036d9061180b565b80156103ba5780601f1061038f576101008083540402835291602001916103ba565b820191906000526020600020905b81548152906001019060200180831161039d57829003601f168201915b5050505050905090565b60006103d86103d161083f565b8484610847565b6001905092915050565b6000600254905090565b6103f7838383610a12565b505050565b6000610409848484610a12565b6000600160008673ffffffffffffffffffffffffffffffffffffffff1673ffffffffffffffffffffffffffffffffffffffff168152602001908152602001600020600061045461083f565b73ffffffffffffffffffffffffffffffffffffffff1673ffffffffffffffffffffffffffffffffffffffff168152602001908152602001600020549050828110156104d4576040517f08c379a00000000000000000000000000000000000000000000000000000000081526004016104cb906115e7565b60405180910390fd5b6104e8856104e061083f565b858403610847565b60019150509392505050565b60006012905090565b600061059f61050a61083f565b84846001600061051861083f565b73ffffffffffffffffffffffffffffffffffffffff1673ffffffffffffffffffffffffffffffffffffffff16815260200190815260200160002060008873ffffffffffffffffffffffffffffffffffffffff1673ffffffffffffffffffffffffffffffffffffffff1681526020019081526020016000205461059a91906116f9565b610847565b6001905092915050565b6105b38282610c93565b5050565b6105c2838383610847565b505050565b60008060008373ffffffffffffffffffffffffffffffffffffffff1673ffffffffffffffffffffffffffffffffffffffff168152602001908152602001600020549050919050565b60606004805461061e9061180b565b80601f016020809104026020016040519081016040528092919081815260200182805461064a9061180b565b80156106975780601f1061066c57610100808354040283529160200191610697565b820191906000526020600020905b81548152906001019060200180831161067a57829003601f168201915b5050505050905090565b6106ab8282610df3565b5050565b600080600160006106be61083f565b73ffffffffffffffffffffffffffffffffffffffff1673ffffffffffffffffffffffffffffffffffffffff16815260200190815260200160002060008573ffffffffffffffffffffffffffffffffffffffff1673ffffffffffffffffffffffffffffffffffffffff1681526020019081526020016000205490508281101561077b576040517f08c379a000000000000000000000000000000000000000000000000000000000815260040161077290611667565b60405180910390fd5b61078f61078661083f565b85858403610847565b600191505092915050565b60006107ae6107a761083f565b8484610a12565b6001905092915050565b6000600160008473ffffffffffffffffffffffffffffffffffffffff1673ffffffffffffffffffffffffffffffffffffffff16815260200190815260200160002060008373ffffffffffffffffffffffffffffffffffffffff1673ffffffffffffffffffffffffffffffffffffffff16815260200190815260200160002054905092915050565b600033905090565b600073ffffffffffffffffffffffffffffffffffffffff168373ffffffffffffffffffffffffffffffffffffffff1614156108b7576040517f08c379a00000000000000000000000000000000000000000000000000000000081526004016108ae90611647565b60405180910390fd5b600073ffffffffffffffffffffffffffffffffffffffff168273ffffffffffffffffffffffffffffffffffffffff161415610927576040517f08c379a000000000000000000000000000000000000000000000000000000000815260040161091e906115a7565b60405180910390fd5b80600160008573ffffffffffffffffffffffffffffffffffffffff1673ffffffffffffffffffffffffffffffffffffffff16815260200190815260200160002060008473ffffffffffffffffffffffffffffffffffffffff1673ffffffffffffffffffffffffffffffffffffffff168152602001908152602001600020819055508173ffffffffffffffffffffffffffffffffffffffff168373ffffffffffffffffffffffffffffffffffffffff167f8c5be1e5ebec7d5bd14f71427d1e84f3dd0314c0f7b2291e5b200ac8c7c3b92583604051610a0591906116a7565b60405180910390a3505050565b600073ffffffffffffffffffffffffffffffffffffffff168373ffffffffffffffffffffffffffffffffffffffff161415610a82576040517f08c379a0000000000000000000000000000000000000000000000000000000008152600401610a7990611627565b60405180910390fd5b600073ffffffffffffffffffffffffffffffffffffffff168273ffffffffffffffffffffffffffffffffffffffff161415610af2576040517f08c379a0000000000000000000000000000000000000000000000000000000008152600401610ae990611567565b60405180910390fd5b610afd838383610fca565b60008060008573ffffffffffffffffffffffffffffffffffffffff1673ffffffffffffffffffffffffffffffffffffffff16815260200190815260200160002054905081811015610b83576040517f08c379a0000000000000000000000000000000000000000000000000000000008152600401610b7a906115c7565b60405180910390fd5b8181036000808673ffffffffffffffffffffffffffffffffffffffff1673ffffffffffffffffffffffffffffffffffffffff16815260200190815260200160002081905550816000808573ffffffffffffffffffffffffffffffffffffffff1673ffffffffffffffffffffffffffffffffffffffff1681526020019081526020016000206000828254610c1691906116f9565b925050819055508273ffffffffffffffffffffffffffffffffffffffff168473ffffffffffffffffffffffffffffffffffffffff167fddf252ad1be2c89b69c2b068fc378daa952ba7f163c4a11628f55a4df523b3ef84604051610c7a91906116a7565b60405180910390a3610c8d848484610fcf565b50505050565b600073ffffffffffffffffffffffffffffffffffffffff168273ffffffffffffffffffffffffffffffffffffffff161415610d03576040517f08c379a0000000000000000000000000000000000000000000000000000000008152600401610cfa90611687565b60405180910390fd5b610d0f60008383610fca565b8060026000828254610d2191906116f9565b92505081905550806000808473ffffffffffffffffffffffffffffffffffffffff1673ffffffffffffffffffffffffffffffffffffffff1681526020019081526020016000206000828254610d7691906116f9565b925050819055508173ffffffffffffffffffffffffffffffffffffffff16600073ffffffffffffffffffffffffffffffffffffffff167fddf252ad1be2c89b69c2b068fc378daa952ba7f163c4a11628f55a4df523b3ef83604051610ddb91906116a7565b60405180910390a3610def60008383610fcf565b5050565b600073ffffffffffffffffffffffffffffffffffffffff168273ffffffffffffffffffffffffffffffffffffffff161415610e63576040517f08c379a0000000000000000000000000000000000000000000000000000000008152600401610e5a90611607565b60405180910390fd5b610e6f82600083610fca565b60008060008473ffffffffffffffffffffffffffffffffffffffff1673ffffffffffffffffffffffffffffffffffffffff16815260200190815260200160002054905081811015610ef5576040517f08c379a0000000000000000000000000000000000000000000000000000000008152600401610eec90611587565b60405180910390fd5b8181036000808573ffffffffffffffffffffffffffffffffffffffff1673ffffffffffffffffffffffffffffffffffffffff168152602001908152602001600020819055508160026000828254610f4c919061174f565b92505081905550600073ffffffffffffffffffffffffffffffffffffffff168373ffffffffffffffffffffffffffffffffffffffff167fddf252ad1be2c89b69c2b068fc378daa952ba7f163c4a11628f55a4df523b3ef84604051610fb191906116a7565b60405180910390a3610fc583600084610fcf565b505050565b505050565b505050565b600081359050610fe3816118ac565b92915050565b600081359050610ff8816118c3565b92915050565b60006020828403121561101057600080fd5b600061101e84828501610fd4565b91505092915050565b6000806040838503121561103a57600080fd5b600061104885828601610fd4565b925050602061105985828601610fd4565b9150509250929050565b60008060006060848603121561107857600080fd5b600061108686828701610fd4565b935050602061109786828701610fd4565b92505060406110a886828701610fe9565b9150509250925092565b600080604083850312156110c557600080fd5b60006110d385828601610fd4565b92505060206110e485828601610fe9565b9150509250929050565b6110f781611795565b82525050565b6000611108826116dd565b61111281856116e8565b93506111228185602086016117d8565b61112b8161189b565b840191505092915050565b60006111436023836116e8565b91507f45524332303a207472616e7366657220746f20746865207a65726f206164647260008301527f65737300000000000000000000000000000000000000000000000000000000006020830152604082019050919050565b60006111a96022836116e8565b91507f45524332303a206275726e20616d6f756e7420657863656564732062616c616e60008301527f63650000000000000000000000000000000000000000000000000000000000006020830152604082019050919050565b600061120f6022836116e8565b91507f45524332303a20617070726f766520746f20746865207a65726f20616464726560008301527f73730000000000000000000000000000000000000000000000000000000000006020830152604082019050919050565b60006112756026836116e8565b91507f45524332303a207472616e7366657220616d6f756e742065786365656473206260008301527f616c616e636500000000000000000000000000000000000000000000000000006020830152604082019050919050565b60006112db6028836116e8565b91507f45524332303a207472616e7366657220616d6f756e742065786365656473206160008301527f6c6c6f77616e63650000000000000000000000000000000000000000000000006020830152604082019050919050565b60006113416021836116e8565b91507f45524332303a206275726e2066726f6d20746865207a65726f2061646472657360008301527f73000000000000000000000000000000000000000000000000000000000000006020830152604082019050919050565b60006113a76025836116e8565b91507f45524332303a207472616e736665722066726f6d20746865207a65726f20616460008301527f64726573730000000000000000000000000000000000000000000000000000006020830152604082019050919050565b600061140d6024836116e8565b91507f45524332303a20617070726f76652066726f6d20746865207a65726f2061646460008301527f72657373000000000000000000000000000000000000000000000000000000006020830152604082019050919050565b60006114736025836116e8565b91507f45524332303a2064656372656173656420616c6c6f77616e63652062656c6f7760008301527f207a65726f0000000000000000000000000000000000000000000000000000006020830152604082019050919050565b60006114d9601f836116e8565b91507f45524332303a206d696e7420746f20746865207a65726f2061646472657373006000830152602082019050919050565b611515816117c1565b82525050565b611524816117cb565b82525050565b600060208201905061153f60008301846110ee565b92915050565b6000602082019050818103600083015261155f81846110fd565b905092915050565b6000602082019050818103600083015261158081611136565b9050919050565b600060208201905081810360008301526115a08161119c565b9050919050565b600060208201905081810360008301526115c081611202565b9050919050565b600060208201905081810360008301526115e081611268565b9050919050565b60006020820190508181036000830152611600816112ce565b9050919050565b6000602082019050818103600083015261162081611334565b9050919050565b600060208201905081810360008301526116408161139a565b9050919050565b6000602082019050818103600083015261166081611400565b9050919050565b6000602082019050818103600083015261168081611466565b9050919050565b600060208201905081810360008301526116a0816114cc565b9050919050565b60006020820190506116bc600083018461150c565b92915050565b60006020820190506116d7600083018461151b565b92915050565b600081519050919050565b600082825260208201905092915050565b6000611704826117c1565b915061170f836117c1565b9250827fffffffffffffffffffffffffffffffffffffffffffffffffffffffffffffffff038211156117445761174361183d565b5b828201905092915050565b600061175a826117c1565b9150611765836117c1565b9250828210156117785761177761183d565b5b828203905092915050565b600061178e826117a1565b9050919050565b60008115159050919050565b600073ffffffffffffffffffffffffffffffffffffffff82169050919050565b6000819050919050565b600060ff82169050919050565b60005b838110156117f65780820151818401526020810190506117db565b83811115611805576000848401525b50505050565b6000600282049050600182168061182357607f821691505b602082108114156118375761183661186c565b5b50919050565b7f4e487b7100000000000000000000000000000000000000000000000000000000600052601160045260246000fd5b7f4e487b7100000000000000000000000000000000000000000000000000000000600052602260045260246000fd5b6000601f19601f8301169050919050565b6118b581611783565b81146118c057600080fd5b50565b6118cc816117c1565b81146118d757600080fd5b5056fea264697066735822122025b12752038caf3ab01e6319ea2735b5100d27e1d251eb317685d02c3095d65364736f6c63430008000033",
  "immutableReferences": {},
  "source": "// SPDX-License-Identifier: MIT\npragma solidity ^0.8.0;\n\nimport \"./IERC20SNKT.sol\";\nimport \"./IERC20SNKTMetadata.sol\";\nimport \"./Utility.sol\";\n\n/// @title A title that should describe the contract/interface\n/// @author The name of the author\n/// @notice Explain to an end user what this does\n/// @dev Explain to a developer any extra details\ncontract ERC20SNKT is IERC20SNKT, IERC20SNKTMetadata, Utility {\n  mapping(address => uint256) private _balances;\n  mapping(address => mapping(address => uint256)) private _allowances;\n  uint256 private _totalSupply;\n  string private _name;\n  string private _symbol;\n\n  constructor(string memory name_, string memory symbol_, uint256 initialSupply_) {\n    _name = name_;\n    _symbol = symbol_;\n    _mint(_msgSender(), initialSupply_);\n  }\n\n  function name() public view virtual override returns (string memory) {\n    return _name;\n  }\n  \n  function symbol() public view virtual override returns(string memory) {\n    return _symbol;\n  }\n\n  function decimals() public view virtual override returns (uint8) {\n    return 18;\n  }\n\n  function totalSupply() public view virtual override returns (uint256) {\n    return _totalSupply;\n  }\n\n  function balanceOf(address account) public view virtual override returns (uint256) {\n    return _balances[account];\n  }\n\n  function transfer(address recipient, uint256 amount) public virtual override returns (bool) {\n    _transfer(_msgSender(), recipient, amount);\n    return true;\n  }\n\n  function allowance(address owner, address spender) public view virtual override returns (uint256) {\n    return _allowances[owner][spender];\n  }\n\n  function approve(address spender, uint256 amount) public virtual override returns (bool) {\n    _approve(_msgSender(), spender, amount);\n    return true;\n  }\n\n  function transferFrom(address sender, address reciptent, uint256 amount) \n    public virtual override returns (bool) {\n    _transfer(sender, reciptent, amount);\n\n    uint256 currentAllowance = _allowances[sender][_msgSender()];\n    require(currentAllowance >= amount, \"ERC20: transfer amount exceeds allowance\");\n    unchecked {\n      _approve(sender, _msgSender(), currentAllowance - amount);\n    }\n\n    return true;\n  }\n\n  function increaseAllowance(address spender, uint256 addedValue) public virtual returns (bool) {\n    _approve(_msgSender(), spender, _allowances[_msgSender()][spender] + addedValue);\n    return true;\n  }\n\n  function decreaseAllowance(address spender, uint256 subtractedValue) public virtual returns (bool) {\n    uint256 currentAllowance = _allowances[_msgSender()][spender];\n    require(currentAllowance >= subtractedValue, \"ERC20: decreased allowance below zero\");\n    unchecked {\n      _approve(_msgSender(), spender, currentAllowance - subtractedValue);\n    }\n\n    return true;\n  }\n\n  function _transfer(address sender, address recipient, uint256 amount) \n    internal virtual {\n    require(sender != address(0), \"ERC20: transfer from the zero address\");\n    require(recipient != address(0), \"ERC20: transfer to the zero address\");\n\n    _beforeTokenTransfer(sender, recipient, amount);\n\n    uint256 senderBalance = _balances[sender];\n    require(senderBalance >= amount, \"ERC20: transfer amount exceeds balance\");\n    unchecked {\n      _balances[sender] = senderBalance - amount;\n    }\n    _balances[recipient] += amount;\n    emit Transfer(sender, recipient, amount);\n\n    _afterTokenTransfer(sender, recipient, amount);\n  }\n\n  function _mint(address account, uint256 amount) internal virtual {\n    require(account != address(0), \"ERC20: mint to the zero address\");\n\n    _beforeTokenTransfer(address(0), account, amount);\n\n    _totalSupply += amount;\n    _balances[account] += amount;\n    emit Transfer(address(0), account, amount);\n\n    _afterTokenTransfer(address(0), account, amount);\n  }\n\n  function _burn(address account, uint256 amount) internal virtual {\n    require(account != address(0), \"ERC20: burn from the zero address\");\n\n    _beforeTokenTransfer(account, address(0), amount);\n\n    uint256 accountBalance = _balances[account];\n    require(accountBalance >= amount, \"ERC20: burn amount exceeds balance\");\n    unchecked {\n      _balances[account] = accountBalance - amount;\n    }\n    _totalSupply -= amount;\n    emit Transfer(account, address(0), amount);\n\n    _afterTokenTransfer(account, address(0), amount);\n  }\n\n  function _approve(address owner, address spender, uint256 amount\n    ) internal virtual {\n    require(owner != address(0), \"ERC20: approve from the zero address\");\n    require(spender != address(0), \"ERC20: approve to the zero address\");\n\n    _allowances[owner][spender] = amount;\n    emit Approval(owner, spender, amount);\n  }\n\n  function _beforeTokenTransfer( address from, address to, uint256 amount\n    ) internal virtual {\n  }\n\n  function _afterTokenTransfer(address from, address to, uint256 amount\n    ) internal virtual {\n  }\n\n  /** -------------------------------------------------------------------------- \n    For Testing Purpose.\n    Yet to be decided to stay or remove\n  */\n\n  function mint(address account, uint256 amount) public {\n    _mint(account, amount);\n  }\n\n  function burn(address account, uint256 amount) public {\n    _burn(account, amount);\n  }\n\n  function transferInternal(address from, address to, uint256 value\n    ) public {\n    _transfer(from, to, value);\n  }\n\n  function approveInternal(address owner, address spender, uint256 value\n    ) public {\n    _approve(owner, spender, value);\n  }\n\n  /**\n  End of Testing public function\n  ------------------------------------------------------------------------------\n  */\n}",
  "sourcePath": "/home/pwc/ethereum_DApps/erc20-token-generator/contracts/ERC20SNKT.sol",
  "compiler": {
    "name": "solc",
    "version": "0.8.0+commit.c7dfd78e.Emscripten.clang"
  },
  "schemaVersion": "3.4.3",
  "updatedAt": "2021-09-20T14:22:16.712Z",
  "networkType": "ethereum",
  "devdoc": {
    "author": "The name of the author",
    "details": "Explain to a developer any extra details",
    "kind": "dev",
    "methods": {
      "allowance(address,address)": {
        "details": "Returns the remaining token that spender will be allowed to spend on behalf of owner through {transferFrom}. This is zero by default."
      },
      "approve(address,uint256)": {
        "details": "Sets `amount` as the allowance of `spender` over the caller's tokens. Returns a boolean value indicating whether the operation succeeded. IMPORTANT: Beware that changing an allowance with this method brings the risk that someone may use both the old and the new allowance by unfortunate transaction ordering. One possible solution to mitigate this race condition is to first reduce the spender's allowance to 0 and set the desired value afterwards: https://github.com/ethereum/EIPs/issues/20#issuecomment-263524729 Emits an {Approval} event."
      },
      "balanceOf(address)": {
        "details": "Return the amount of token own by the account "
      },
      "decimals()": {
        "details": "Return the decimal place of the token."
      },
      "name()": {
        "details": "Returns the name of the token"
      },
      "symbol()": {
        "details": "Return the symbol of the token."
      },
      "totalSupply()": {
        "details": "Returns the amount of token in existence"
      },
      "transfer(address,uint256)": {
        "details": "Moves amount token from the callers account to the receiptent. Return a boolen value indicating whether the operation succeded or not. Emits a {Transfer} event"
      }
    },
    "title": "A title that should describe the contract/interface",
    "version": 1
  },
  "userdoc": {
    "kind": "user",
    "methods": {
      "mint(address,uint256)": {
        "notice": "--------------------------------------------------------------------------  For Testing Purpose. Yet to be decided to stay or remove"
      }
    },
    "notice": "Explain to an end user what this does",
    "version": 1
  }
}