{
  "contractName": "ApprovalContract",
  "abi": [
    {
      "inputs": [],
      "stateMutability": "nonpayable",
      "type": "constructor"
    },
    {
      "anonymous": false,
      "inputs": [
        {
          "indexed": true,
          "internalType": "address",
          "name": "oldApprover",
          "type": "address"
        },
        {
          "indexed": true,
          "internalType": "address",
          "name": "newApprover",
          "type": "address"
        }
      ],
      "name": "ApproverSet",
      "type": "event"
    },
    {
      "anonymous": false,
      "inputs": [
        {
          "indexed": true,
          "internalType": "address",
          "name": "sender",
          "type": "address"
        },
        {
          "indexed": true,
          "internalType": "address",
          "name": "receiver",
          "type": "address"
        },
        {
          "indexed": false,
          "internalType": "uint256",
          "name": "amount",
          "type": "uint256"
        }
      ],
      "name": "etherTransfer",
      "type": "event"
    },
    {
      "inputs": [
        {
          "internalType": "uint256",
          "name": "",
          "type": "uint256"
        }
      ],
      "name": "amount",
      "outputs": [
        {
          "internalType": "uint256",
          "name": "",
          "type": "uint256"
        }
      ],
      "stateMutability": "view",
      "type": "function"
    },
    {
      "inputs": [
        {
          "internalType": "uint256",
          "name": "",
          "type": "uint256"
        }
      ],
      "name": "receiver",
      "outputs": [
        {
          "internalType": "address payable",
          "name": "",
          "type": "address"
        }
      ],
      "stateMutability": "view",
      "type": "function"
    },
    {
      "inputs": [
        {
          "internalType": "uint256",
          "name": "",
          "type": "uint256"
        }
      ],
      "name": "sender",
      "outputs": [
        {
          "internalType": "address",
          "name": "",
          "type": "address"
        }
      ],
      "stateMutability": "view",
      "type": "function"
    },
    {
      "inputs": [
        {
          "internalType": "address payable",
          "name": "_receiver",
          "type": "address"
        }
      ],
      "name": "transfer",
      "outputs": [],
      "stateMutability": "payable",
      "type": "function"
    },
    {
      "inputs": [],
      "name": "viewApprover",
      "outputs": [
        {
          "internalType": "address",
          "name": "",
          "type": "address"
        }
      ],
      "stateMutability": "view",
      "type": "function"
    },
    {
      "inputs": [],
      "name": "approveAll",
      "outputs": [],
      "stateMutability": "payable",
      "type": "function"
    }
  ],
  "bytecode": "0x608060405234801561001057600080fd5b5033600360006101000a81548173ffffffffffffffffffffffffffffffffffffffff021916908373ffffffffffffffffffffffffffffffffffffffff160217905550600360009054906101000a900473ffffffffffffffffffffffffffffffffffffffff1673ffffffffffffffffffffffffffffffffffffffff16600073ffffffffffffffffffffffffffffffffffffffff167fb46bb6b7fccd16229a540b8ce8352e3bd5607873f75038ee3b6fb6a199d1522760405160405180910390a3610adf806100de6000396000f3fe6080604052600436106100555760003560e01c80631a6952301461005a578063380d0c08146100765780638b0d025814610080578063a81ccdc5146100bd578063c1ac56d0146100fa578063d93ce89c14610137575b600080fd5b610074600480360381019061006f91906107d9565b610162565b005b61007e610297565b005b34801561008c57600080fd5b506100a760048036038101906100a29190610802565b6106e3565b6040516100b49190610974565b60405180910390f35b3480156100c957600080fd5b506100e460048036038101906100df9190610802565b610707565b6040516100f19190610919565b60405180910390f35b34801561010657600080fd5b50610121600480360381019061011c9190610802565b610746565b60405161012e91906108fe565b60405180910390f35b34801561014357600080fd5b5061014c610785565b60405161015991906108fe565b60405180910390f35b600034116101a5576040517f08c379a000000000000000000000000000000000000000000000000000000000815260040161019c90610934565b60405180910390fd5b6000339080600181540180825580915050600190039060005260206000200160009091909190916101000a81548173ffffffffffffffffffffffffffffffffffffffff021916908373ffffffffffffffffffffffffffffffffffffffff1602179055506001819080600181540180825580915050600190039060005260206000200160009091909190916101000a81548173ffffffffffffffffffffffffffffffffffffffff021916908373ffffffffffffffffffffffffffffffffffffffff160217905550600234908060018154018082558091505060019003906000526020600020016000909190919091505550565b600360009054906101000a900473ffffffffffffffffffffffffffffffffffffffff1673ffffffffffffffffffffffffffffffffffffffff163373ffffffffffffffffffffffffffffffffffffffff1614610327576040517f08c379a000000000000000000000000000000000000000000000000000000000815260040161031e90610954565b60405180910390fd5b60006001808054905061033a91906109a0565b90505b600081106106e0576001818154811061037f577f4e487b7100000000000000000000000000000000000000000000000000000000600052603260045260246000fd5b9060005260206000200160009054906101000a900473ffffffffffffffffffffffffffffffffffffffff1673ffffffffffffffffffffffffffffffffffffffff166108fc600283815481106103fd577f4e487b7100000000000000000000000000000000000000000000000000000000600052603260045260246000fd5b90600052602060002001549081150290604051600060405180830381858888f19350505050158015610433573d6000803e3d6000fd5b506001818154811061046e577f4e487b7100000000000000000000000000000000000000000000000000000000600052603260045260246000fd5b9060005260206000200160009054906101000a900473ffffffffffffffffffffffffffffffffffffffff1673ffffffffffffffffffffffffffffffffffffffff16600082815481106104e9577f4e487b7100000000000000000000000000000000000000000000000000000000600052603260045260246000fd5b9060005260206000200160009054906101000a900473ffffffffffffffffffffffffffffffffffffffff1673ffffffffffffffffffffffffffffffffffffffff167f5e60fca2b42688f1fdf1d089edf0e8bbe6e32f0ff3d57751d1c027e0eded5d9960028481548110610585577f4e487b7100000000000000000000000000000000000000000000000000000000600052603260045260246000fd5b906000526020600020015460405161059d9190610974565b60405180910390a360018054806105dd577f4e487b7100000000000000000000000000000000000000000000000000000000600052603160045260246000fd5b6001900381819060005260206000200160006101000a81549073ffffffffffffffffffffffffffffffffffffffff02191690559055600080548061064a577f4e487b7100000000000000000000000000000000000000000000000000000000600052603160045260246000fd5b6001900381819060005260206000200160006101000a81549073ffffffffffffffffffffffffffffffffffffffff0219169055905560028054806106b7577f4e487b7100000000000000000000000000000000000000000000000000000000600052603160045260246000fd5b6001900381819060005260206000200160009055905580806106d890610a22565b91505061033d565b50565b600281815481106106f357600080fd5b906000526020600020016000915090505481565b6001818154811061071757600080fd5b906000526020600020016000915054906101000a900473ffffffffffffffffffffffffffffffffffffffff1681565b6000818154811061075657600080fd5b906000526020600020016000915054906101000a900473ffffffffffffffffffffffffffffffffffffffff1681565b6000600360009054906101000a900473ffffffffffffffffffffffffffffffffffffffff16905090565b6000813590506107be81610a7b565b92915050565b6000813590506107d381610a92565b92915050565b6000602082840312156107eb57600080fd5b60006107f9848285016107af565b91505092915050565b60006020828403121561081457600080fd5b6000610822848285016107c4565b91505092915050565b610834816109e6565b82525050565b610843816109d4565b82525050565b600061085660278361098f565b91507f53656e646572206d7573742073656e6420736f6d6520617070726f707269617460008301527f65206574686572000000000000000000000000000000000000000000000000006020830152604082019050919050565b60006108bc60168361098f565b91507f43616c6c6572206973206e6f7420617070726f766572000000000000000000006000830152602082019050919050565b6108f881610a18565b82525050565b6000602082019050610913600083018461083a565b92915050565b600060208201905061092e600083018461082b565b92915050565b6000602082019050818103600083015261094d81610849565b9050919050565b6000602082019050818103600083015261096d816108af565b9050919050565b600060208201905061098960008301846108ef565b92915050565b600082825260208201905092915050565b60006109ab82610a18565b91506109b683610a18565b9250828210156109c9576109c8610a4c565b5b828203905092915050565b60006109df826109f8565b9050919050565b60006109f1826109f8565b9050919050565b600073ffffffffffffffffffffffffffffffffffffffff82169050919050565b6000819050919050565b6000610a2d82610a18565b91506000821415610a4157610a40610a4c565b5b600182039050919050565b7f4e487b7100000000000000000000000000000000000000000000000000000000600052601160045260246000fd5b610a84816109e6565b8114610a8f57600080fd5b50565b610a9b81610a18565b8114610aa657600080fd5b5056fea264697066735822122028b3a6032dce1b39055d618cf53addb7e0dba25ac1256ed076ae3d89190181e764736f6c63430008000033",
  "immutableReferences": {},
  "source": "// SPDX-License-Identifier: MIT\npragma solidity ^0.8.0;\n\ncontract ApprovalContract {\n  address[] public sender;\n\n  address payable[] public receiver;\n\n  uint[] public amount;\n\n  // Store the address who deployed the contract\n  address private approver;\n\n  // event for EVM logging\n  event ApproverSet(address indexed oldApprover, address indexed newApprover);\n\n  // event for transfer of ether\n  event etherTransfer(address indexed sender, address indexed receiver, uint amount);\n\n  //modifier to check if caller is approver\n  modifier isApprover() {\n    require(msg.sender == approver, \"Caller is not approver\");\n    _;\n  }\n\n  modifier hasMoney() {\n    require(msg.value > 0, \"Sender must send some appropriate ether\");\n    _;\n  }\n\n  constructor() {\n    approver = msg.sender;\n    emit ApproverSet(address(0), approver);\n  }\n\n  function transfer(address payable _receiver) external payable hasMoney {\n    sender.push(msg.sender);\n    receiver.push(_receiver);\n    amount.push(msg.value);\n  }\n\n  function viewApprover() external view returns(address) {\n    return(approver);\n  }\n\n  function approveAll() external payable isApprover {\n    for (uint i = receiver.length - 1; i >= 0; i--) {\n      receiver[i].transfer(amount[i]);\n      emit etherTransfer(sender[i], receiver[i], amount[i]);\n      receiver.pop();\n      sender.pop();\n      amount.pop();\n    }\n  }\n}\n\n\n",
  "sourcePath": "/home/pwc/ethereum_DApps/ether-transfer/contracts/ApprovalContract.sol",
  "compiler": {
    "name": "solc",
    "version": "0.8.0+commit.c7dfd78e.Emscripten.clang"
  },
  "schemaVersion": "3.4.3",
  "updatedAt": "2021-09-01T16:11:05.149Z",
  "devdoc": {
    "kind": "dev",
    "methods": {},
    "version": 1
  },
  "userdoc": {
    "kind": "user",
    "methods": {},
    "version": 1
  }
}