{
    "contractName": "HelloWorld",
    "abi": [
        {
            "inputs": [],
            "name": "getHelloMessage",
            "outputs": [
                {
                    "internalType": "string",
                    "name": "",
                    "type": "string"
                }
            ],
            "stateMutability": "view",
            "type": "function"
        }
    ],
    "bytecode": "60c0604052600c60808190526b48656c6c6f20576f726c642160a01b60a090815261002d9160009190610040565b5034801561003a57600080fd5b50610114565b82805461004c906100d9565b90600052602060002090601f01602090048101928261006e57600085556100b4565b82601f1061008757805160ff19168380011785556100b4565b828001600101855582156100b4579182015b828111156100b4578251825591602001919060010190610099565b506100c09291506100c4565b5090565b5b808211156100c057600081556001016100c5565b6002810460018216806100ed57607f821691505b6020821081141561010e57634e487b7160e01b600052602260045260246000fd5b50919050565b6101a4806101236000396000f3fe608060405234801561001057600080fd5b506004361061002b5760003560e01c80633493b37c14610030575b600080fd5b61003861004e565b60405161004591906100e0565b60405180910390f35b60606000805461005d90610133565b80601f016020809104026020016040519081016040528092919081815260200182805461008990610133565b80156100d65780601f106100ab576101008083540402835291602001916100d6565b820191906000526020600020905b8154815290600101906020018083116100b957829003601f168201915b5050505050905090565b6000602080835283518082850152825b8181101561010c578581018301518582016040015282016100f0565b8181111561011d5783604083870101525b50601f01601f1916929092016040019392505050565b60028104600182168061014757607f821691505b6020821081141561016857634e487b7160e01b600052602260045260246000fd5b5091905056fea2646970667358221220a15b181f0028e577745df72609c7264b42fcf5c7d29bb413362e5bdc0521068064736f6c63430008000033",
    "sourcePath": "/home/pwc/ethereum_DApps/Hello-world/contracts/HelloWorld.sol",
    "compiler": {
        "name": "solc",
        "version": "0.8.0+commit.c7dfd78e"
    },
    "functionHashes": {
        "getHelloMessage()": "3493b37c"
    },
    "gasEstimates": {
        "creation": {
            "codeDepositCost": "84000",
            "executionCost": "infinite",
            "totalCost": "infinite"
        },
        "external": {
            "getHelloMessage()": "infinite"
        }
    }
}